{"abi":[{"type":"constructor","inputs":[{"name":"_priceFeedXAU","type":"address","internalType":"address"},{"name":"_priceFeedETH","type":"address","internalType":"address"}],"stateMutability":"nonpayable"},{"type":"function","name":"allowance","inputs":[{"name":"owner","type":"address","internalType":"address"},{"name":"spender","type":"address","internalType":"address"}],"outputs":[{"name":"","type":"uint256","internalType":"uint256"}],"stateMutability":"view"},{"type":"function","name":"approve","inputs":[{"name":"spender","type":"address","internalType":"address"},{"name":"value","type":"uint256","internalType":"uint256"}],"outputs":[{"name":"","type":"bool","internalType":"bool"}],"stateMutability":"nonpayable"},{"type":"function","name":"balanceOf","inputs":[{"name":"account","type":"address","internalType":"address"}],"outputs":[{"name":"","type":"uint256","internalType":"uint256"}],"stateMutability":"view"},{"type":"function","name":"burn","inputs":[{"name":"_amount","type":"uint256","internalType":"uint256"}],"outputs":[],"stateMutability":"nonpayable"},{"type":"function","name":"decimals","inputs":[],"outputs":[{"name":"","type":"uint8","internalType":"uint8"}],"stateMutability":"view"},{"type":"function","name":"getETHPrice","inputs":[],"outputs":[{"name":"","type":"int256","internalType":"int256"}],"stateMutability":"view"},{"type":"function","name":"getXAUPrice","inputs":[],"outputs":[{"name":"","type":"int256","internalType":"int256"}],"stateMutability":"view"},{"type":"function","name":"lotteryContract","inputs":[],"outputs":[{"name":"","type":"address","internalType":"address"}],"stateMutability":"view"},{"type":"function","name":"mint","inputs":[],"outputs":[],"stateMutability":"payable"},{"type":"function","name":"name","inputs":[],"outputs":[{"name":"","type":"string","internalType":"string"}],"stateMutability":"view"},{"type":"function","name":"owner","inputs":[],"outputs":[{"name":"","type":"address","internalType":"address"}],"stateMutability":"view"},{"type":"function","name":"priceFeedETH","inputs":[],"outputs":[{"name":"","type":"address","internalType":"contract AggregatorV3Interface"}],"stateMutability":"view"},{"type":"function","name":"priceFeedXAU","inputs":[],"outputs":[{"name":"","type":"address","internalType":"contract AggregatorV3Interface"}],"stateMutability":"view"},{"type":"function","name":"renounceOwnership","inputs":[],"outputs":[],"stateMutability":"nonpayable"},{"type":"function","name":"setLotteryContract","inputs":[{"name":"_lotteryContract","type":"address","internalType":"address"}],"outputs":[],"stateMutability":"nonpayable"},{"type":"function","name":"symbol","inputs":[],"outputs":[{"name":"","type":"string","internalType":"string"}],"stateMutability":"view"},{"type":"function","name":"totalFees","inputs":[],"outputs":[{"name":"","type":"uint256","internalType":"uint256"}],"stateMutability":"view"},{"type":"function","name":"totalSupply","inputs":[],"outputs":[{"name":"","type":"uint256","internalType":"uint256"}],"stateMutability":"view"},{"type":"function","name":"transfer","inputs":[{"name":"to","type":"address","internalType":"address"},{"name":"value","type":"uint256","internalType":"uint256"}],"outputs":[{"name":"","type":"bool","internalType":"bool"}],"stateMutability":"nonpayable"},{"type":"function","name":"transferFeesToLottery","inputs":[],"outputs":[],"stateMutability":"nonpayable"},{"type":"function","name":"transferFrom","inputs":[{"name":"from","type":"address","internalType":"address"},{"name":"to","type":"address","internalType":"address"},{"name":"value","type":"uint256","internalType":"uint256"}],"outputs":[{"name":"","type":"bool","internalType":"bool"}],"stateMutability":"nonpayable"},{"type":"function","name":"transferOwnership","inputs":[{"name":"newOwner","type":"address","internalType":"address"}],"outputs":[],"stateMutability":"nonpayable"},{"type":"event","name":"Approval","inputs":[{"name":"owner","type":"address","indexed":true,"internalType":"address"},{"name":"spender","type":"address","indexed":true,"internalType":"address"},{"name":"value","type":"uint256","indexed":false,"internalType":"uint256"}],"anonymous":false},{"type":"event","name":"Burned","inputs":[{"name":"burner","type":"address","indexed":true,"internalType":"address"},{"name":"tokensBurned","type":"uint256","indexed":false,"internalType":"uint256"},{"name":"fees","type":"uint256","indexed":false,"internalType":"uint256"}],"anonymous":false},{"type":"event","name":"Minted","inputs":[{"name":"minter","type":"address","indexed":true,"internalType":"address"},{"name":"amountInEth","type":"uint256","indexed":false,"internalType":"uint256"},{"name":"tokensMinted","type":"uint256","indexed":false,"internalType":"uint256"},{"name":"fees","type":"uint256","indexed":false,"internalType":"uint256"}],"anonymous":false},{"type":"event","name":"OwnershipTransferred","inputs":[{"name":"previousOwner","type":"address","indexed":true,"internalType":"address"},{"name":"newOwner","type":"address","indexed":true,"internalType":"address"}],"anonymous":false},{"type":"event","name":"Transfer","inputs":[{"name":"from","type":"address","indexed":true,"internalType":"address"},{"name":"to","type":"address","indexed":true,"internalType":"address"},{"name":"value","type":"uint256","indexed":false,"internalType":"uint256"}],"anonymous":false},{"type":"error","name":"ERC20InsufficientAllowance","inputs":[{"name":"spender","type":"address","internalType":"address"},{"name":"allowance","type":"uint256","internalType":"uint256"},{"name":"needed","type":"uint256","internalType":"uint256"}]},{"type":"error","name":"ERC20InsufficientBalance","inputs":[{"name":"sender","type":"address","internalType":"address"},{"name":"balance","type":"uint256","internalType":"uint256"},{"name":"needed","type":"uint256","internalType":"uint256"}]},{"type":"error","name":"ERC20InvalidApprover","inputs":[{"name":"approver","type":"address","internalType":"address"}]},{"type":"error","name":"ERC20InvalidReceiver","inputs":[{"name":"receiver","type":"address","internalType":"address"}]},{"type":"error","name":"ERC20InvalidSender","inputs":[{"name":"sender","type":"address","internalType":"address"}]},{"type":"error","name":"ERC20InvalidSpender","inputs":[{"name":"spender","type":"address","internalType":"address"}]},{"type":"error","name":"OwnableInvalidOwner","inputs":[{"name":"owner","type":"address","internalType":"address"}]},{"type":"error","name":"OwnableUnauthorizedAccount","inputs":[{"name":"account","type":"address","internalType":"address"}]}],"bytecode":{"object":"0x608060405234801561000f575f5ffd5b506040516111ee3803806111ee83398101604081905261002e91610161565b336040518060400160405280600a81526020016923b7b632102a37b5b2b760b11b8152506040518060400160405280600381526020016211d31160ea1b815250816003908161007d919061022a565b50600461008a828261022a565b5050506001600160a01b0381166100ba57604051631e4fbdf760e01b81525f600482015260240160405180910390fd5b6100c3816100f5565b50600680546001600160a01b039384166001600160a01b031991821617909155600780549290931691161790556102e4565b600580546001600160a01b038381166001600160a01b0319831681179093556040519116919082907f8be0079c531659141344cd1fd0a4f28419497f9722a3daafe3b4186f6b6457e0905f90a35050565b80516001600160a01b038116811461015c575f5ffd5b919050565b5f5f60408385031215610172575f5ffd5b61017b83610146565b915061018960208401610146565b90509250929050565b634e487b7160e01b5f52604160045260245ffd5b600181811c908216806101ba57607f821691505b6020821081036101d857634e487b7160e01b5f52602260045260245ffd5b50919050565b601f82111561022557805f5260205f20601f840160051c810160208510156102035750805b601f840160051c820191505b81811015610222575f815560010161020f565b50505b505050565b81516001600160401b0381111561024357610243610192565b6102578161025184546101a6565b846101de565b6020601f821160018114610289575f83156102725750848201515b5f19600385901b1c1916600184901b178455610222565b5f84815260208120601f198516915b828110156102b85787850151825560209485019460019092019101610298565b50848210156102d557868401515f19600387901b60f8161c191681555b50505050600190811b01905550565b610efd806102f15f395ff3fe608060405260043610610131575f3560e01c806370a08231116100a8578063a607a8d91161006d578063a607a8d91461031f578063a9059cbb14610333578063b29c662a14610352578063dd62ed3e14610371578063eff69172146103b5578063f2fde38b146103d4575f5ffd5b806370a082311461026f578063715018a6146102a3578063883c1374146102b75780638da5cb5b146102ee57806395d89b411461030b575f5ffd5b806318160ddd116100f957806318160ddd146101da57806323b872dd146101ee578063313ce5671461020d57806335efc1a91461022857806342966c681461023c5780636cfe19431461025b575f5ffd5b806306fdde0314610135578063095ea7b31461015f5780631249c58b1461018e57806313114a9d146101985780631590a04f146101bb575b5f5ffd5b348015610140575f5ffd5b506101496103f3565b6040516101569190610c9e565b60405180910390f35b34801561016a575f5ffd5b5061017e610179366004610cee565b610483565b6040519015158152602001610156565b61019661049c565b005b3480156101a3575f5ffd5b506101ad60095481565b604051908152602001610156565b3480156101c6575f5ffd5b506101966101d5366004610d16565b6105e1565b3480156101e5575f5ffd5b506002546101ad565b3480156101f9575f5ffd5b5061017e610208366004610d36565b61060b565b348015610218575f5ffd5b5060405160128152602001610156565b348015610233575f5ffd5b506101ad61062e565b348015610247575f5ffd5b50610196610256366004610d70565b6106af565b348015610266575f5ffd5b50610196610794565b34801561027a575f5ffd5b506101ad610289366004610d16565b6001600160a01b03165f9081526020819052604090205490565b3480156102ae575f5ffd5b50610196610817565b3480156102c2575f5ffd5b506006546102d6906001600160a01b031681565b6040516001600160a01b039091168152602001610156565b3480156102f9575f5ffd5b506005546001600160a01b03166102d6565b348015610316575f5ffd5b5061014961082a565b34801561032a575f5ffd5b506101ad610839565b34801561033e575f5ffd5b5061017e61034d366004610cee565b61088b565b34801561035d575f5ffd5b506008546102d6906001600160a01b031681565b34801561037c575f5ffd5b506101ad61038b366004610d87565b6001600160a01b039182165f90815260016020908152604080832093909416825291909152205490565b3480156103c0575f5ffd5b506007546102d6906001600160a01b031681565b3480156103df575f5ffd5b506101966103ee366004610d16565b610898565b60606003805461040290610db8565b80601f016020809104026020016040519081016040528092919081815260200182805461042e90610db8565b80156104795780601f1061045057610100808354040283529160200191610479565b820191905f5260205f20905b81548152906001019060200180831161045c57829003601f168201915b5050505050905090565b5f336104908185856108d2565b60019150505b92915050565b5f34116104de5760405162461bcd60e51b815260206004820152600b60248201526a139bc8115512081cd95b9d60aa1b60448201526064015b60405180910390fd5b5f6104e7610839565b90505f6104f261062e565b90505f6305f5e1006105048434610e04565b61050e9190610e1b565b90505f6204befb610524846402540be400610e04565b61052e9190610e1b565b90505f81610541846402540be400610e04565b61054b9190610e1b565b90505f606461055b836005610e04565b6105659190610e1b565b90505f6105728284610e3a565b90508160095f8282546105859190610e4d565b90915550610595905033826108e4565b604080513481526020810183905290810183905233907f5a3358a3d27a5373c0df2604662088d37894d56b7cfd27f315770440f4e0d9199060600160405180910390a250505050505050565b6105e961091c565b600880546001600160a01b0319166001600160a01b0392909216919091179055565b5f33610618858285610949565b6106238585856109c4565b506001949350505050565b5f5f60065f9054906101000a90046001600160a01b03166001600160a01b031663feaf968c6040518163ffffffff1660e01b815260040160a060405180830381865afa158015610680573d5f5f3e3d5ffd5b505050506040513d601f19601f820116820180604052508101906106a49190610e79565b509195945050505050565b335f908152602081905260409020548111156107025760405162461bcd60e51b81526020600482015260126024820152714e6f7420656e6f7567682062616c616e636560701b60448201526064016104d5565b5f6064610710836005610e04565b61071a9190610e1b565b90505f6107278284610e3a565b90506107333382610a21565b8160095f8282546107449190610e4d565b9091555061075490503383610a21565b604080518481526020810184905233917f23ff0e75edf108e3d0392d92e13e8c8a868ef19001bd49f9e94876dc46dff87f910160405180910390a2505050565b61079c61091c565b6008546001600160a01b03166107f45760405162461bcd60e51b815260206004820152601860248201527f4c6f747465727920636f6e7472616374206e6f7420736574000000000000000060448201526064016104d5565b600980545f9091556008546108149030906001600160a01b0316836109c4565b50565b61081f61091c565b6108285f610a55565b565b60606004805461040290610db8565b5f5f60075f9054906101000a90046001600160a01b03166001600160a01b031663feaf968c6040518163ffffffff1660e01b815260040160a060405180830381865afa158015610680573d5f5f3e3d5ffd5b5f336104908185856109c4565b6108a061091c565b6001600160a01b0381166108c957604051631e4fbdf760e01b81525f60048201526024016104d5565b61081481610a55565b6108df8383836001610aa6565b505050565b6001600160a01b03821661090d5760405163ec442f0560e01b81525f60048201526024016104d5565b6109185f8383610b78565b5050565b6005546001600160a01b031633146108285760405163118cdaa760e01b81523360048201526024016104d5565b6001600160a01b038381165f908152600160209081526040808320938616835292905220545f1981146109be57818110156109b057604051637dc7a0d960e11b81526001600160a01b038416600482015260248101829052604481018390526064016104d5565b6109be84848484035f610aa6565b50505050565b6001600160a01b0383166109ed57604051634b637e8f60e11b81525f60048201526024016104d5565b6001600160a01b038216610a165760405163ec442f0560e01b81525f60048201526024016104d5565b6108df838383610b78565b6001600160a01b038216610a4a57604051634b637e8f60e11b81525f60048201526024016104d5565b610918825f83610b78565b600580546001600160a01b038381166001600160a01b0319831681179093556040519116919082907f8be0079c531659141344cd1fd0a4f28419497f9722a3daafe3b4186f6b6457e0905f90a35050565b6001600160a01b038416610acf5760405163e602df0560e01b81525f60048201526024016104d5565b6001600160a01b038316610af857604051634a1406b160e11b81525f60048201526024016104d5565b6001600160a01b038085165f90815260016020908152604080832093871683529290522082905580156109be57826001600160a01b0316846001600160a01b03167f8c5be1e5ebec7d5bd14f71427d1e84f3dd0314c0f7b2291e5b200ac8c7c3b92584604051610b6a91815260200190565b60405180910390a350505050565b6001600160a01b038316610ba2578060025f828254610b979190610e4d565b90915550610c129050565b6001600160a01b0383165f9081526020819052604090205481811015610bf45760405163391434e360e21b81526001600160a01b038516600482015260248101829052604481018390526064016104d5565b6001600160a01b0384165f9081526020819052604090209082900390555b6001600160a01b038216610c2e57600280548290039055610c4c565b6001600160a01b0382165f9081526020819052604090208054820190555b816001600160a01b0316836001600160a01b03167fddf252ad1be2c89b69c2b068fc378daa952ba7f163c4a11628f55a4df523b3ef83604051610c9191815260200190565b60405180910390a3505050565b602081525f82518060208401528060208501604085015e5f604082850101526040601f19601f83011684010191505092915050565b80356001600160a01b0381168114610ce9575f5ffd5b919050565b5f5f60408385031215610cff575f5ffd5b610d0883610cd3565b946020939093013593505050565b5f60208284031215610d26575f5ffd5b610d2f82610cd3565b9392505050565b5f5f5f60608486031215610d48575f5ffd5b610d5184610cd3565b9250610d5f60208501610cd3565b929592945050506040919091013590565b5f60208284031215610d80575f5ffd5b5035919050565b5f5f60408385031215610d98575f5ffd5b610da183610cd3565b9150610daf60208401610cd3565b90509250929050565b600181811c90821680610dcc57607f821691505b602082108103610dea57634e487b7160e01b5f52602260045260245ffd5b50919050565b634e487b7160e01b5f52601160045260245ffd5b808202811582820484141761049657610496610df0565b5f82610e3557634e487b7160e01b5f52601260045260245ffd5b500490565b8181038181111561049657610496610df0565b8082018082111561049657610496610df0565b805169ffffffffffffffffffff81168114610ce9575f5ffd5b5f5f5f5f5f60a08688031215610e8d575f5ffd5b610e9686610e60565b60208701516040880151606089015192975090955093509150610ebb60808701610e60565b9050929550929590935056fea264697066735822122080e36e7c3d097ee1e31ff814af6bc82c4993a6e9e219e524e826166dec331b8164736f6c634300081c0033","linkReferences":{}},"methodIdentifiers":{"allowance(address,address)":"dd62ed3e","approve(address,uint256)":"095ea7b3","balanceOf(address)":"70a08231","burn(uint256)":"42966c68","decimals()":"313ce567","getETHPrice()":"a607a8d9","getXAUPrice()":"35efc1a9","lotteryContract()":"b29c662a","mint()":"1249c58b","name()":"06fdde03","owner()":"8da5cb5b","priceFeedETH()":"eff69172","priceFeedXAU()":"883c1374","renounceOwnership()":"715018a6","setLotteryContract(address)":"1590a04f","symbol()":"95d89b41","totalFees()":"13114a9d","totalSupply()":"18160ddd","transfer(address,uint256)":"a9059cbb","transferFeesToLottery()":"6cfe1943","transferFrom(address,address,uint256)":"23b872dd","transferOwnership(address)":"f2fde38b"},"id":9}