{"abi":[{"type":"constructor","inputs":[{"name":"_ccip","type":"address","internalType":"address"},{"name":"_goldToken","type":"address","internalType":"address"}],"stateMutability":"nonpayable"},{"type":"function","name":"authorizeChain","inputs":[{"name":"chainId","type":"uint256","internalType":"uint256"}],"outputs":[],"stateMutability":"nonpayable"},{"type":"function","name":"authorizedChains","inputs":[{"name":"","type":"uint256","internalType":"uint256"}],"outputs":[{"name":"","type":"bool","internalType":"bool"}],"stateMutability":"view"},{"type":"function","name":"bridgeToChain","inputs":[{"name":"destinationChainId","type":"uint256","internalType":"uint256"},{"name":"amount","type":"uint256","internalType":"uint256"},{"name":"receiver","type":"address","internalType":"address"}],"outputs":[],"stateMutability":"nonpayable"},{"type":"function","name":"ccip","inputs":[],"outputs":[{"name":"","type":"address","internalType":"contract IChainlinkCCIP"}],"stateMutability":"view"},{"type":"function","name":"ccipReceive","inputs":[{"name":"sourceChainId","type":"uint256","internalType":"uint256"},{"name":"message","type":"bytes","internalType":"bytes"},{"name":"tokens","type":"address[]","internalType":"contract IERC20[]"},{"name":"amounts","type":"uint256[]","internalType":"uint256[]"},{"name":"sender","type":"address","internalType":"address"}],"outputs":[],"stateMutability":"nonpayable"},{"type":"function","name":"goldToken","inputs":[],"outputs":[{"name":"","type":"address","internalType":"contract IERC20"}],"stateMutability":"view"},{"type":"function","name":"owner","inputs":[],"outputs":[{"name":"","type":"address","internalType":"address"}],"stateMutability":"view"},{"type":"function","name":"renounceOwnership","inputs":[],"outputs":[],"stateMutability":"nonpayable"},{"type":"function","name":"transferOwnership","inputs":[{"name":"newOwner","type":"address","internalType":"address"}],"outputs":[],"stateMutability":"nonpayable"},{"type":"event","name":"BridgeReceived","inputs":[{"name":"sourceChain","type":"uint256","indexed":false,"internalType":"uint256"},{"name":"receiver","type":"address","indexed":true,"internalType":"address"},{"name":"amount","type":"uint256","indexed":false,"internalType":"uint256"}],"anonymous":false},{"type":"event","name":"BridgeSent","inputs":[{"name":"destinationChain","type":"uint256","indexed":false,"internalType":"uint256"},{"name":"sender","type":"address","indexed":true,"internalType":"address"},{"name":"amount","type":"uint256","indexed":false,"internalType":"uint256"}],"anonymous":false},{"type":"event","name":"OwnershipTransferred","inputs":[{"name":"previousOwner","type":"address","indexed":true,"internalType":"address"},{"name":"newOwner","type":"address","indexed":true,"internalType":"address"}],"anonymous":false},{"type":"error","name":"OwnableInvalidOwner","inputs":[{"name":"owner","type":"address","internalType":"address"}]},{"type":"error","name":"OwnableUnauthorizedAccount","inputs":[{"name":"account","type":"address","internalType":"address"}]}],"bytecode":{"object":"0x608060405234801561000f575f5ffd5b50604051610bf1380380610bf183398101604081905261002e916100f8565b338061005357604051631e4fbdf760e01b81525f600482015260240160405180910390fd5b61005c8161008e565b50600180546001600160a01b039384166001600160a01b03199182161790915560028054929093169116179055610129565b5f80546001600160a01b038381166001600160a01b0319831681178455604051919092169283917f8be0079c531659141344cd1fd0a4f28419497f9722a3daafe3b4186f6b6457e09190a35050565b80516001600160a01b03811681146100f3575f5ffd5b919050565b5f5f60408385031215610109575f5ffd5b610112836100dd565b9150610120602084016100dd565b90509250929050565b610abb806101365f395ff3fe608060405234801561000f575f5ffd5b5060043610610090575f3560e01c80637e77b36b116100635780637e77b36b146100d75780638da5cb5b1461010757806394002b5714610117578063e9a031e61461012a578063f2fde38b1461015c575f5ffd5b80630719b642146100945780632406c989146100a9578063464eddb6146100bc578063715018a6146100cf575b5f5ffd5b6100a76100a236600461078b565b61016f565b005b6100a76100b736600461080e565b610191565b6100a76100ca3660046108f5565b6103c9565b6100a76106c0565b6001546100ea906001600160a01b031681565b6040516001600160a01b0390911681526020015b60405180910390f35b5f546001600160a01b03166100ea565b6002546100ea906001600160a01b031681565b61014c61013836600461078b565b60036020525f908152604090205460ff1681565b60405190151581526020016100fe565b6100a761016a36600461092b565b6106d3565b610177610710565b5f908152600360205260409020805460ff19166001179055565b6001546001600160a01b031633146101e55760405162461bcd60e51b815260206004820152601260248201527113db9b1e4810d0d2540818d85b8818d85b1b60721b60448201526064015b60405180910390fd5b5f8881526003602052604090205460ff166102395760405162461bcd60e51b815260206004820152601460248201527310da185a5b881b9bdd08185d5d1a1bdc9a5e995960621b60448201526064016101dc565b60018414801561028057506002546001600160a01b031685855f816102605761026061094d565b9050602002016020810190610275919061092b565b6001600160a01b0316145b6102c35760405162461bcd60e51b8152602060048201526014602482015273496e76616c696420746f6b656e7320617272617960601b60448201526064016101dc565b6002546001600160a01b031663a9059cbb8285855f816102e5576102e561094d565b6040516001600160e01b031960e087901b1681526001600160a01b03909416600485015260200291909101356024830152506044016020604051808303815f875af1158015610336573d5f5f3e3d5ffd5b505050506040513d601f19601f8201168201806040525081019061035a9190610961565b50806001600160a01b03167f16888b9508c8e8b5bd7006dc8e36ef65620a75c43e2ae3365cfc88696a2e55048985855f8181106103995761039961094d565b905060200201356040516103b7929190918252602082015260400190565b60405180910390a25050505050505050565b5f8381526003602052604090205460ff1661041d5760405162461bcd60e51b815260206004820152601460248201527310da185a5b881b9bdd08185d5d1a1bdc9a5e995960621b60448201526064016101dc565b6002546040516370a0823160e01b815233600482015283916001600160a01b0316906370a0823190602401602060405180830381865afa158015610463573d5f5f3e3d5ffd5b505050506040513d601f19601f820116820180604052508101906104879190610980565b10156104c65760405162461bcd60e51b815260206004820152600e60248201526d139bdd08195b9bdd59da0811d31160921b60448201526064016101dc565b6002546040516323b872dd60e01b8152336004820152306024820152604481018490526001600160a01b03909116906323b872dd906064016020604051808303815f875af115801561051a573d5f5f3e3d5ffd5b505050506040513d601f19601f8201168201806040525081019061053e9190610961565b506040805160018082528183019092525f9160208083019080368337505060025482519293506001600160a01b0316918391505f9061057f5761057f61094d565b6001600160a01b0392909216602092830291909101909101526040805160018082528183019092525f9181602001602082028036833701905050905083815f815181106105ce576105ce61094d565b6020026020010181815250505f604051602001610609906020808252600a9082015269189c9a5919d94811d31160b21b604082015260600190565b60408051601f19818403018152908290526001546353bac5db60e11b83529092506001600160a01b03169063a7758bb6906106509089908590889088908b906004016109d1565b5f604051808303815f87803b158015610667575f5ffd5b505af1158015610679573d5f5f3e3d5ffd5b505060408051898152602081018990523393507f2fa0fbea0883bed90813b2d2db98e85361bfe1d2a2c6098482ce810c25cae89d92500160405180910390a2505050505050565b6106c8610710565b6106d15f61073c565b565b6106db610710565b6001600160a01b03811661070457604051631e4fbdf760e01b81525f60048201526024016101dc565b61070d8161073c565b50565b5f546001600160a01b031633146106d15760405163118cdaa760e01b81523360048201526024016101dc565b5f80546001600160a01b038381166001600160a01b0319831681178455604051919092169283917f8be0079c531659141344cd1fd0a4f28419497f9722a3daafe3b4186f6b6457e09190a35050565b5f6020828403121561079b575f5ffd5b5035919050565b5f5f83601f8401126107b2575f5ffd5b50813567ffffffffffffffff8111156107c9575f5ffd5b6020830191508360208260051b85010111156107e3575f5ffd5b9250929050565b6001600160a01b038116811461070d575f5ffd5b8035610809816107ea565b919050565b5f5f5f5f5f5f5f5f60a0898b031215610825575f5ffd5b88359750602089013567ffffffffffffffff811115610842575f5ffd5b8901601f81018b13610852575f5ffd5b803567ffffffffffffffff811115610868575f5ffd5b8b6020828401011115610879575f5ffd5b60209190910197509550604089013567ffffffffffffffff81111561089c575f5ffd5b6108a88b828c016107a2565b909650945050606089013567ffffffffffffffff8111156108c7575f5ffd5b6108d38b828c016107a2565b90945092506108e6905060808a016107fe565b90509295985092959890939650565b5f5f5f60608486031215610907575f5ffd5b83359250602084013591506040840135610920816107ea565b809150509250925092565b5f6020828403121561093b575f5ffd5b8135610946816107ea565b9392505050565b634e487b7160e01b5f52603260045260245ffd5b5f60208284031215610971575f5ffd5b81518015158114610946575f5ffd5b5f60208284031215610990575f5ffd5b5051919050565b5f8151808452602084019350602083015f5b828110156109c75781518652602095860195909101906001016109a9565b5093949350505050565b85815260a060208201525f85518060a0840152806020880160c085015e5f83820160c0908101829052601f909201601f19168401848103830160408601528751928101839052602088019260e0909101905b80831015610a4e5783516001600160a01b031682526020938401936001939093019290910190610a23565b508481036060860152610a618188610997565b9350505050610a7b60808301846001600160a01b03169052565b969550505050505056fea264697066735822122043f162579b468cf227ce87ba996c4b07a3c3818dbdb9ede4b841cb6e4f1fb51864736f6c634300081c0033","linkReferences":{}},"methodIdentifiers":{"authorizeChain(uint256)":"0719b642","authorizedChains(uint256)":"e9a031e6","bridgeToChain(uint256,uint256,address)":"464eddb6","ccip()":"7e77b36b","ccipReceive(uint256,bytes,address[],uint256[],address)":"2406c989","goldToken()":"94002b57","owner()":"8da5cb5b","renounceOwnership()":"715018a6","transferOwnership(address)":"f2fde38b"},"id":8}