{"abi":[{"type":"constructor","inputs":[{"name":"_vrfCoordinator","type":"address","internalType":"address"},{"name":"_keyHash","type":"bytes32","internalType":"bytes32"},{"name":"_subscriptionId","type":"uint64","internalType":"uint64"},{"name":"_requestConfirmations","type":"uint16","internalType":"uint16"},{"name":"_callbackGasLimit","type":"uint32","internalType":"uint32"},{"name":"_goldToken","type":"address","internalType":"address"}],"stateMutability":"nonpayable"},{"type":"function","name":"callbackGasLimit","inputs":[],"outputs":[{"name":"","type":"uint32","internalType":"uint32"}],"stateMutability":"view"},{"type":"function","name":"enter","inputs":[],"outputs":[],"stateMutability":"nonpayable"},{"type":"function","name":"fulfilled","inputs":[{"name":"","type":"uint256","internalType":"uint256"}],"outputs":[{"name":"","type":"bool","internalType":"bool"}],"stateMutability":"view"},{"type":"function","name":"goldToken","inputs":[],"outputs":[{"name":"","type":"address","internalType":"contract IERC20"}],"stateMutability":"view"},{"type":"function","name":"keyHash","inputs":[],"outputs":[{"name":"","type":"bytes32","internalType":"bytes32"}],"stateMutability":"view"},{"type":"function","name":"owner","inputs":[],"outputs":[{"name":"","type":"address","internalType":"address"}],"stateMutability":"view"},{"type":"function","name":"players","inputs":[{"name":"","type":"uint256","internalType":"uint256"}],"outputs":[{"name":"","type":"address","internalType":"address"}],"stateMutability":"view"},{"type":"function","name":"rawFulfillRandomWords","inputs":[{"name":"requestId","type":"uint256","internalType":"uint256"},{"name":"randomWords","type":"uint256[]","internalType":"uint256[]"}],"outputs":[],"stateMutability":"nonpayable"},{"type":"function","name":"renounceOwnership","inputs":[],"outputs":[],"stateMutability":"nonpayable"},{"type":"function","name":"requestConfirmations","inputs":[],"outputs":[{"name":"","type":"uint16","internalType":"uint16"}],"stateMutability":"view"},{"type":"function","name":"startLottery","inputs":[],"outputs":[],"stateMutability":"nonpayable"},{"type":"function","name":"subscriptionId","inputs":[],"outputs":[{"name":"","type":"uint64","internalType":"uint64"}],"stateMutability":"view"},{"type":"function","name":"transferOwnership","inputs":[{"name":"newOwner","type":"address","internalType":"address"}],"outputs":[],"stateMutability":"nonpayable"},{"type":"function","name":"vrfCoordinator","inputs":[],"outputs":[{"name":"","type":"address","internalType":"contract VRFCoordinatorV2Interface"}],"stateMutability":"view"},{"type":"event","name":"OwnershipTransferred","inputs":[{"name":"previousOwner","type":"address","indexed":true,"internalType":"address"},{"name":"newOwner","type":"address","indexed":true,"internalType":"address"}],"anonymous":false},{"type":"event","name":"PlayerEntered","inputs":[{"name":"player","type":"address","indexed":true,"internalType":"address"}],"anonymous":false},{"type":"event","name":"WinnerChosen","inputs":[{"name":"winner","type":"address","indexed":true,"internalType":"address"},{"name":"amountWon","type":"uint256","indexed":false,"internalType":"uint256"}],"anonymous":false},{"type":"error","name":"OwnableInvalidOwner","inputs":[{"name":"owner","type":"address","internalType":"address"}]},{"type":"error","name":"OwnableUnauthorizedAccount","inputs":[{"name":"account","type":"address","internalType":"address"}]}],"bytecode":{"object":"0x608060405234801561000f575f5ffd5b50604051610ab9380380610ab983398101604081905261002e9161015b565b338061005357604051631e4fbdf760e01b81525f600482015260240160405180910390fd5b61005c816100f1565b50600180546001600160a01b039788166001600160a01b0319918216179091556002959095556003805463ffffffff9093166a01000000000000000000000263ffffffff60501b1961ffff90951668010000000000000000026001600160501b03199094166001600160401b0390961695909517929092179290921692909217909155600480549190931691161790556101e6565b5f80546001600160a01b038381166001600160a01b0319831681178455604051919092169283917f8be0079c531659141344cd1fd0a4f28419497f9722a3daafe3b4186f6b6457e09190a35050565b80516001600160a01b0381168114610156575f5ffd5b919050565b5f5f5f5f5f5f60c08789031215610170575f5ffd5b61017987610140565b6020880151604089015191975095506001600160401b038116811461019c575f5ffd5b606088015190945061ffff811681146101b3575f5ffd5b608088015190935063ffffffff811681146101cc575f5ffd5b91506101da60a08801610140565b90509295509295509295565b6108c6806101f35f395ff3fe608060405234801561000f575f5ffd5b50600436106100e5575f3560e01c80638da5cb5b11610088578063b0fb162f11610063578063b0fb162f146101ff578063e97dcb6214610227578063f2fde38b1461022f578063f71d96cb14610242575f5ffd5b80638da5cb5b146101b557806394002b57146101d9578063a3e56fa8146101ec575f5ffd5b80631fe543e3116100c35780631fe543e31461015757806324f746971461016a57806361728f3914610196578063715018a6146101ad575f5ffd5b806309c1ba2e146100e9578063160344e21461011b5780631bc404d614610125575b5f5ffd5b6003546100fd9067ffffffffffffffff1681565b60405167ffffffffffffffff90911681526020015b60405180910390f35b610123610255565b005b6101476101333660046106fb565b60066020525f908152604090205460ff1681565b6040519015158152602001610112565b610123610165366004610726565b61030c565b60035461018190600160501b900463ffffffff1681565b60405163ffffffff9091168152602001610112565b61019f60025481565b604051908152602001610112565b61012361036f565b5f546001600160a01b03165b6040516001600160a01b039091168152602001610112565b6004546101c1906001600160a01b031681565b6001546101c1906001600160a01b031681565b60035461021490600160401b900461ffff1681565b60405161ffff9091168152602001610112565b610123610382565b61012361023d3660046107fa565b6103ef565b6101c16102503660046106fb565b610429565b61025d610451565b600180546002546003546040516305d3b1d360e41b8152600481019290925267ffffffffffffffff81166024830152600160401b810461ffff166044830152600160501b900463ffffffff16606482015260848101929092526001600160a01b031690635d3b1d309060a4016020604051808303815f875af11580156102e5573d5f5f3e3d5ffd5b505050506040513d601f19601f820116820180604052508101906103099190610827565b50565b6001546001600160a01b031633146103615760405162461bcd60e51b815260206004820152601360248201527227b7363c902b292321b7b7b93234b730ba37b960691b60448201526064015b60405180910390fd5b61036b828261047d565b5050565b610377610451565b6103805f61067e565b565b600580546001810182555f9182527f036b6384b5eca791c62761152d0c79bb0604c104a5fb6f4eb0703f3154bb3db00180546001600160a01b0319163390811790915560405190917f4d999952f9aa655a216ee2df5968ca0e670e9582ddc96cfe7d8168114b8ca37f91a2565b6103f7610451565b6001600160a01b03811661042057604051631e4fbdf760e01b81525f6004820152602401610358565b6103098161067e565b60058181548110610438575f80fd5b5f918252602090912001546001600160a01b0316905081565b5f546001600160a01b031633146103805760405163118cdaa760e01b8152336004820152602401610358565b5f8281526006602052604090205460ff16156104cf5760405162461bcd60e51b8152602060048201526011602482015270105b1c9958591e48199d5b199a5b1b1959607a1b6044820152606401610358565b5f828152600660205260408120805460ff191660011790558151829082906104f9576104f961083e565b602002602001015190505f600580549050826105159190610852565b90505f6005828154811061052b5761052b61083e565b5f918252602082200154600480546040516370a0823160e01b815230928101929092526001600160a01b03928316945091909116906370a0823190602401602060405180830381865afa158015610584573d5f5f3e3d5ffd5b505050506040513d601f19601f820116820180604052508101906105a89190610827565b9050801561066b576004805460405163a9059cbb60e01b81526001600160a01b03858116938201939093526024810184905291169063a9059cbb906044016020604051808303815f875af1158015610602573d5f5f3e3d5ffd5b505050506040513d601f19601f820116820180604052508101906106269190610871565b50816001600160a01b03167fc5d1e2a43e1052756e222065802cb80a029bfaf7045b3df42c5c87b92e48de418260405161066291815260200190565b60405180910390a25b61067660055f6106cd565b505050505050565b5f80546001600160a01b038381166001600160a01b0319831681178455604051919092169283917f8be0079c531659141344cd1fd0a4f28419497f9722a3daafe3b4186f6b6457e09190a35050565b5080545f8255905f5260205f209081019061030991905b808211156106f7575f81556001016106e4565b5090565b5f6020828403121561070b575f5ffd5b5035919050565b634e487b7160e01b5f52604160045260245ffd5b5f5f60408385031215610737575f5ffd5b82359150602083013567ffffffffffffffff811115610754575f5ffd5b8301601f81018513610764575f5ffd5b803567ffffffffffffffff81111561077e5761077e610712565b8060051b604051601f19603f830116810181811067ffffffffffffffff821117156107ab576107ab610712565b6040529182526020818401810192908101888411156107c8575f5ffd5b6020850194505b838510156107eb578435808252602095860195909350016107cf565b50809450505050509250929050565b5f6020828403121561080a575f5ffd5b81356001600160a01b0381168114610820575f5ffd5b9392505050565b5f60208284031215610837575f5ffd5b5051919050565b634e487b7160e01b5f52603260045260245ffd5b5f8261086c57634e487b7160e01b5f52601260045260245ffd5b500690565b5f60208284031215610881575f5ffd5b81518015158114610820575f5ffdfea26469706673582212208aedb4ee907aaf67893d98b0dd4b38e5ba4075002b6ec9c6dfc40bd7049c9c4864736f6c634300081c0033","linkReferences":{}},"methodIdentifiers":{"callbackGasLimit()":"24f74697","enter()":"e97dcb62","fulfilled(uint256)":"1bc404d6","goldToken()":"94002b57","keyHash()":"61728f39","owner()":"8da5cb5b","players(uint256)":"f71d96cb","rawFulfillRandomWords(uint256,uint256[])":"1fe543e3","renounceOwnership()":"715018a6","requestConfirmations()":"b0fb162f","startLottery()":"160344e2","subscriptionId()":"09c1ba2e","transferOwnership(address)":"f2fde38b","vrfCoordinator()":"a3e56fa8"},"id":10}